{
	"contracts/struct.sol": {
		"StructCRUD": {
			"abi": [
				{
					"inputs": [
						{
							"internalType": "string",
							"name": "_name",
							"type": "string"
						},
						{
							"internalType": "string",
							"name": "_age",
							"type": "string"
						}
					],
					"name": "create",
					"outputs": [],
					"stateMutability": "nonpayable",
					"type": "function"
				},
				{
					"inputs": [
						{
							"internalType": "uint256",
							"name": "",
							"type": "uint256"
						}
					],
					"name": "items",
					"outputs": [
						{
							"internalType": "string",
							"name": "name",
							"type": "string"
						},
						{
							"internalType": "string",
							"name": "age",
							"type": "string"
						},
						{
							"internalType": "uint256",
							"name": "id",
							"type": "uint256"
						},
						{
							"internalType": "bool",
							"name": "verrification",
							"type": "bool"
						}
					],
					"stateMutability": "view",
					"type": "function"
				},
				{
					"inputs": [],
					"name": "nextID",
					"outputs": [
						{
							"internalType": "uint256",
							"name": "",
							"type": "uint256"
						}
					],
					"stateMutability": "view",
					"type": "function"
				}
			],
			"devdoc": {
				"kind": "dev",
				"methods": {},
				"version": 1
			},
			"evm": {
				"assembly": "    /* \"contracts/struct.sol\":63:371  contract StructCRUD{... */\n  mstore(0x40, 0x80)\n    /* \"contracts/struct.sol\":229:230  0 */\n  0x00\n    /* \"contracts/struct.sol\":205:230  uint256 public nextID = 0 */\n  0x01\n  sstore\n    /* \"contracts/struct.sol\":63:371  contract StructCRUD{... */\n  callvalue\n  dup1\n  iszero\n  tag_1\n  jumpi\n  0x00\n  dup1\n  revert\ntag_1:\n  pop\n  dataSize(sub_0)\n  dup1\n  dataOffset(sub_0)\n  0x00\n  codecopy\n  0x00\n  return\nstop\n\nsub_0: assembly {\n        /* \"contracts/struct.sol\":63:371  contract StructCRUD{... */\n      mstore(0x40, 0x80)\n      callvalue\n      dup1\n      iszero\n      tag_1\n      jumpi\n      0x00\n      dup1\n      revert\n    tag_1:\n      pop\n      jumpi(tag_2, lt(calldatasize, 0x04))\n      shr(0xe0, calldataload(0x00))\n      dup1\n      0x198e2b8a\n      eq\n      tag_3\n      jumpi\n      dup1\n      0x1e96917d\n      eq\n      tag_4\n      jumpi\n      dup1\n      0xbfb231d2\n      eq\n      tag_5\n      jumpi\n    tag_2:\n      0x00\n      dup1\n      revert\n        /* \"contracts/struct.sol\":235:366  function create(string memory _name, string memory _age) public {... */\n    tag_3:\n      tag_6\n      0x04\n      dup1\n      calldatasize\n      sub\n      dup2\n      add\n      swap1\n      tag_7\n      swap2\n      swap1\n      tag_8\n      jump\t// in\n    tag_7:\n      tag_9\n      jump\t// in\n    tag_6:\n      stop\n        /* \"contracts/struct.sol\":205:230  uint256 public nextID = 0 */\n    tag_4:\n      tag_10\n      tag_11\n      jump\t// in\n    tag_10:\n      mload(0x40)\n      tag_12\n      swap2\n      swap1\n      tag_13\n      jump\t// in\n    tag_12:\n      mload(0x40)\n      dup1\n      swap2\n      sub\n      swap1\n      return\n        /* \"contracts/struct.sol\":183:202  Item[] public items */\n    tag_5:\n      tag_14\n      0x04\n      dup1\n      calldatasize\n      sub\n      dup2\n      add\n      swap1\n      tag_15\n      swap2\n      swap1\n      tag_16\n      jump\t// in\n    tag_15:\n      tag_17\n      jump\t// in\n    tag_14:\n      mload(0x40)\n      tag_18\n      swap5\n      swap4\n      swap3\n      swap2\n      swap1\n      tag_19\n      jump\t// in\n    tag_18:\n      mload(0x40)\n      dup1\n      swap2\n      sub\n      swap1\n      return\n        /* \"contracts/struct.sol\":235:366  function create(string memory _name, string memory _age) public {... */\n    tag_9:\n        /* \"contracts/struct.sol\":306:311  items */\n      0x00\n        /* \"contracts/struct.sol\":317:348  Item(_name, _age, nextID, true) */\n      mload(0x40)\n      dup1\n      0x80\n      add\n      0x40\n      mstore\n      dup1\n        /* \"contracts/struct.sol\":322:327  _name */\n      dup5\n        /* \"contracts/struct.sol\":317:348  Item(_name, _age, nextID, true) */\n      dup2\n      mstore\n      0x20\n      add\n        /* \"contracts/struct.sol\":329:333  _age */\n      dup4\n        /* \"contracts/struct.sol\":317:348  Item(_name, _age, nextID, true) */\n      dup2\n      mstore\n      0x20\n      add\n        /* \"contracts/struct.sol\":335:341  nextID */\n      sload(0x01)\n        /* \"contracts/struct.sol\":317:348  Item(_name, _age, nextID, true) */\n      dup2\n      mstore\n      0x20\n      add\n        /* \"contracts/struct.sol\":343:347  true */\n      0x01\n        /* \"contracts/struct.sol\":317:348  Item(_name, _age, nextID, true) */\n      iszero\n      iszero\n      dup2\n      mstore\n      pop\n        /* \"contracts/struct.sol\":306:349  items.push(Item(_name, _age, nextID, true)) */\n      swap1\n      dup1\n      0x01\n      dup2\n      sload\n      add\n      dup1\n      dup3\n      sstore\n      dup1\n      swap2\n      pop\n      pop\n      0x01\n      swap1\n      sub\n      swap1\n      0x00\n      mstore\n      keccak256(0x00, 0x20)\n      swap1\n      0x04\n      mul\n      add\n      0x00\n      swap1\n      swap2\n      swap1\n      swap2\n      swap1\n      swap2\n      pop\n      0x00\n      dup3\n      add\n      mload\n      dup2\n      0x00\n      add\n      swap1\n      dup2\n      tag_22\n      swap2\n      swap1\n      tag_23\n      jump\t// in\n    tag_22:\n      pop\n      0x20\n      dup3\n      add\n      mload\n      dup2\n      0x01\n      add\n      swap1\n      dup2\n      tag_24\n      swap2\n      swap1\n      tag_23\n      jump\t// in\n    tag_24:\n      pop\n      0x40\n      dup3\n      add\n      mload\n      dup2\n      0x02\n      add\n      sstore\n      0x60\n      dup3\n      add\n      mload\n      dup2\n      0x03\n      add\n      exp(0x0100, 0x00)\n      dup2\n      sload\n      dup2\n      0xff\n      mul\n      not\n      and\n      swap1\n      dup4\n      iszero\n      iszero\n      mul\n      or\n      swap1\n      sstore\n      pop\n      pop\n      pop\n        /* \"contracts/struct.sol\":354:360  nextID */\n      0x01\n      0x00\n        /* \"contracts/struct.sol\":354:362  nextID++ */\n      dup2\n      sload\n      dup1\n      swap3\n      swap2\n      swap1\n      tag_25\n      swap1\n      tag_26\n      jump\t// in\n    tag_25:\n      swap2\n      swap1\n      pop\n      sstore\n      pop\n        /* \"contracts/struct.sol\":235:366  function create(string memory _name, string memory _age) public {... */\n      pop\n      pop\n      jump\t// out\n        /* \"contracts/struct.sol\":205:230  uint256 public nextID = 0 */\n    tag_11:\n      sload(0x01)\n      dup2\n      jump\t// out\n        /* \"contracts/struct.sol\":183:202  Item[] public items */\n    tag_17:\n      0x00\n      dup2\n      dup2\n      sload\n      dup2\n      lt\n      tag_27\n      jumpi\n      0x00\n      dup1\n      revert\n    tag_27:\n      swap1\n      0x00\n      mstore\n      keccak256(0x00, 0x20)\n      swap1\n      0x04\n      mul\n      add\n      0x00\n      swap2\n      pop\n      swap1\n      pop\n      dup1\n      0x00\n      add\n      dup1\n      sload\n      tag_29\n      swap1\n      tag_30\n      jump\t// in\n    tag_29:\n      dup1\n      0x1f\n      add\n      0x20\n      dup1\n      swap2\n      div\n      mul\n      0x20\n      add\n      mload(0x40)\n      swap1\n      dup2\n      add\n      0x40\n      mstore\n      dup1\n      swap3\n      swap2\n      swap1\n      dup2\n      dup2\n      mstore\n      0x20\n      add\n      dup3\n      dup1\n      sload\n      tag_31\n      swap1\n      tag_30\n      jump\t// in\n    tag_31:\n      dup1\n      iszero\n      tag_32\n      jumpi\n      dup1\n      0x1f\n      lt\n      tag_33\n      jumpi\n      0x0100\n      dup1\n      dup4\n      sload\n      div\n      mul\n      dup4\n      mstore\n      swap2\n      0x20\n      add\n      swap2\n      jump(tag_32)\n    tag_33:\n      dup3\n      add\n      swap2\n      swap1\n      0x00\n      mstore\n      keccak256(0x00, 0x20)\n      swap1\n    tag_34:\n      dup2\n      sload\n      dup2\n      mstore\n      swap1\n      0x01\n      add\n      swap1\n      0x20\n      add\n      dup1\n      dup4\n      gt\n      tag_34\n      jumpi\n      dup3\n      swap1\n      sub\n      0x1f\n      and\n      dup3\n      add\n      swap2\n    tag_32:\n      pop\n      pop\n      pop\n      pop\n      pop\n      swap1\n      dup1\n      0x01\n      add\n      dup1\n      sload\n      tag_35\n      swap1\n      tag_30\n      jump\t// in\n    tag_35:\n      dup1\n      0x1f\n      add\n      0x20\n      dup1\n      swap2\n      div\n      mul\n      0x20\n      add\n      mload(0x40)\n      swap1\n      dup2\n      add\n      0x40\n      mstore\n      dup1\n      swap3\n      swap2\n      swap1\n      dup2\n      dup2\n      mstore\n      0x20\n      add\n      dup3\n      dup1\n      sload\n      tag_36\n      swap1\n      tag_30\n      jump\t// in\n    tag_36:\n      dup1\n      iszero\n      tag_37\n      jumpi\n      dup1\n      0x1f\n      lt\n      tag_38\n      jumpi\n      0x0100\n      dup1\n      dup4\n      sload\n      div\n      mul\n      dup4\n      mstore\n      swap2\n      0x20\n      add\n      swap2\n      jump(tag_37)\n    tag_38:\n      dup3\n      add\n      swap2\n      swap1\n      0x00\n      mstore\n      keccak256(0x00, 0x20)\n      swap1\n    tag_39:\n      dup2\n      sload\n      dup2\n      mstore\n      swap1\n      0x01\n      add\n      swap1\n      0x20\n      add\n      dup1\n      dup4\n      gt\n      tag_39\n      jumpi\n      dup3\n      swap1\n      sub\n      0x1f\n      and\n      dup3\n      add\n      swap2\n    tag_37:\n      pop\n      pop\n      pop\n      pop\n      pop\n      swap1\n      dup1\n      0x02\n      add\n      sload\n      swap1\n      dup1\n      0x03\n      add\n      0x00\n      swap1\n      sload\n      swap1\n      0x0100\n      exp\n      swap1\n      div\n      0xff\n      and\n      swap1\n      pop\n      dup5\n      jump\t// out\n        /* \"#utility.yul\":7:82   */\n    tag_40:\n        /* \"#utility.yul\":40:46   */\n      0x00\n        /* \"#utility.yul\":73:75   */\n      0x40\n        /* \"#utility.yul\":67:76   */\n      mload\n        /* \"#utility.yul\":57:76   */\n      swap1\n      pop\n        /* \"#utility.yul\":7:82   */\n      swap1\n      jump\t// out\n        /* \"#utility.yul\":88:205   */\n    tag_41:\n        /* \"#utility.yul\":197:198   */\n      0x00\n        /* \"#utility.yul\":194:195   */\n      dup1\n        /* \"#utility.yul\":187:199   */\n      revert\n        /* \"#utility.yul\":211:328   */\n    tag_42:\n        /* \"#utility.yul\":320:321   */\n      0x00\n        /* \"#utility.yul\":317:318   */\n      dup1\n        /* \"#utility.yul\":310:322   */\n      revert\n        /* \"#utility.yul\":334:451   */\n    tag_43:\n        /* \"#utility.yul\":443:444   */\n      0x00\n        /* \"#utility.yul\":440:441   */\n      dup1\n        /* \"#utility.yul\":433:445   */\n      revert\n        /* \"#utility.yul\":457:574   */\n    tag_44:\n        /* \"#utility.yul\":566:567   */\n      0x00\n        /* \"#utility.yul\":563:564   */\n      dup1\n        /* \"#utility.yul\":556:568   */\n      revert\n        /* \"#utility.yul\":580:682   */\n    tag_45:\n        /* \"#utility.yul\":621:627   */\n      0x00\n        /* \"#utility.yul\":672:674   */\n      0x1f\n        /* \"#utility.yul\":668:675   */\n      not\n        /* \"#utility.yul\":663:665   */\n      0x1f\n        /* \"#utility.yul\":656:661   */\n      dup4\n        /* \"#utility.yul\":652:666   */\n      add\n        /* \"#utility.yul\":648:676   */\n      and\n        /* \"#utility.yul\":638:676   */\n      swap1\n      pop\n        /* \"#utility.yul\":580:682   */\n      swap2\n      swap1\n      pop\n      jump\t// out\n        /* \"#utility.yul\":688:868   */\n    tag_46:\n        /* \"#utility.yul\":736:813   */\n      0x4e487b7100000000000000000000000000000000000000000000000000000000\n        /* \"#utility.yul\":733:734   */\n      0x00\n        /* \"#utility.yul\":726:814   */\n      mstore\n        /* \"#utility.yul\":833:837   */\n      0x41\n        /* \"#utility.yul\":830:831   */\n      0x04\n        /* \"#utility.yul\":823:838   */\n      mstore\n        /* \"#utility.yul\":857:861   */\n      0x24\n        /* \"#utility.yul\":854:855   */\n      0x00\n        /* \"#utility.yul\":847:862   */\n      revert\n        /* \"#utility.yul\":874:1155   */\n    tag_47:\n        /* \"#utility.yul\":957:984   */\n      tag_89\n        /* \"#utility.yul\":979:983   */\n      dup3\n        /* \"#utility.yul\":957:984   */\n      tag_45\n      jump\t// in\n    tag_89:\n        /* \"#utility.yul\":949:955   */\n      dup2\n        /* \"#utility.yul\":945:985   */\n      add\n        /* \"#utility.yul\":1087:1093   */\n      dup2\n        /* \"#utility.yul\":1075:1085   */\n      dup2\n        /* \"#utility.yul\":1072:1094   */\n      lt\n        /* \"#utility.yul\":1051:1069   */\n      0xffffffffffffffff\n        /* \"#utility.yul\":1039:1049   */\n      dup3\n        /* \"#utility.yul\":1036:1070   */\n      gt\n        /* \"#utility.yul\":1033:1095   */\n      or\n        /* \"#utility.yul\":1030:1118   */\n      iszero\n      tag_90\n      jumpi\n        /* \"#utility.yul\":1098:1116   */\n      tag_91\n      tag_46\n      jump\t// in\n    tag_91:\n        /* \"#utility.yul\":1030:1118   */\n    tag_90:\n        /* \"#utility.yul\":1138:1148   */\n      dup1\n        /* \"#utility.yul\":1134:1136   */\n      0x40\n        /* \"#utility.yul\":1127:1149   */\n      mstore\n        /* \"#utility.yul\":917:1155   */\n      pop\n        /* \"#utility.yul\":874:1155   */\n      pop\n      pop\n      jump\t// out\n        /* \"#utility.yul\":1161:1290   */\n    tag_48:\n        /* \"#utility.yul\":1195:1201   */\n      0x00\n        /* \"#utility.yul\":1222:1242   */\n      tag_93\n      tag_40\n      jump\t// in\n    tag_93:\n        /* \"#utility.yul\":1212:1242   */\n      swap1\n      pop\n        /* \"#utility.yul\":1251:1284   */\n      tag_94\n        /* \"#utility.yul\":1279:1283   */\n      dup3\n        /* \"#utility.yul\":1271:1277   */\n      dup3\n        /* \"#utility.yul\":1251:1284   */\n      tag_47\n      jump\t// in\n    tag_94:\n        /* \"#utility.yul\":1161:1290   */\n      swap2\n      swap1\n      pop\n      jump\t// out\n        /* \"#utility.yul\":1296:1604   */\n    tag_49:\n        /* \"#utility.yul\":1358:1362   */\n      0x00\n        /* \"#utility.yul\":1448:1466   */\n      0xffffffffffffffff\n        /* \"#utility.yul\":1440:1446   */\n      dup3\n        /* \"#utility.yul\":1437:1467   */\n      gt\n        /* \"#utility.yul\":1434:1490   */\n      iszero\n      tag_96\n      jumpi\n        /* \"#utility.yul\":1470:1488   */\n      tag_97\n      tag_46\n      jump\t// in\n    tag_97:\n        /* \"#utility.yul\":1434:1490   */\n    tag_96:\n        /* \"#utility.yul\":1508:1537   */\n      tag_98\n        /* \"#utility.yul\":1530:1536   */\n      dup3\n        /* \"#utility.yul\":1508:1537   */\n      tag_45\n      jump\t// in\n    tag_98:\n        /* \"#utility.yul\":1500:1537   */\n      swap1\n      pop\n        /* \"#utility.yul\":1592:1596   */\n      0x20\n        /* \"#utility.yul\":1586:1590   */\n      dup2\n        /* \"#utility.yul\":1582:1597   */\n      add\n        /* \"#utility.yul\":1574:1597   */\n      swap1\n      pop\n        /* \"#utility.yul\":1296:1604   */\n      swap2\n      swap1\n      pop\n      jump\t// out\n        /* \"#utility.yul\":1610:1758   */\n    tag_50:\n        /* \"#utility.yul\":1708:1714   */\n      dup3\n        /* \"#utility.yul\":1703:1706   */\n      dup2\n        /* \"#utility.yul\":1698:1701   */\n      dup4\n        /* \"#utility.yul\":1685:1715   */\n      calldatacopy\n        /* \"#utility.yul\":1749:1750   */\n      0x00\n        /* \"#utility.yul\":1740:1746   */\n      dup4\n        /* \"#utility.yul\":1735:1738   */\n      dup4\n        /* \"#utility.yul\":1731:1747   */\n      add\n        /* \"#utility.yul\":1724:1751   */\n      mstore\n        /* \"#utility.yul\":1610:1758   */\n      pop\n      pop\n      pop\n      jump\t// out\n        /* \"#utility.yul\":1764:2189   */\n    tag_51:\n        /* \"#utility.yul\":1842:1847   */\n      0x00\n        /* \"#utility.yul\":1867:1933   */\n      tag_101\n        /* \"#utility.yul\":1883:1932   */\n      tag_102\n        /* \"#utility.yul\":1925:1931   */\n      dup5\n        /* \"#utility.yul\":1883:1932   */\n      tag_49\n      jump\t// in\n    tag_102:\n        /* \"#utility.yul\":1867:1933   */\n      tag_48\n      jump\t// in\n    tag_101:\n        /* \"#utility.yul\":1858:1933   */\n      swap1\n      pop\n        /* \"#utility.yul\":1956:1962   */\n      dup3\n        /* \"#utility.yul\":1949:1954   */\n      dup2\n        /* \"#utility.yul\":1942:1963   */\n      mstore\n        /* \"#utility.yul\":1994:1998   */\n      0x20\n        /* \"#utility.yul\":1987:1992   */\n      dup2\n        /* \"#utility.yul\":1983:1999   */\n      add\n        /* \"#utility.yul\":2032:2035   */\n      dup5\n        /* \"#utility.yul\":2023:2029   */\n      dup5\n        /* \"#utility.yul\":2018:2021   */\n      dup5\n        /* \"#utility.yul\":2014:2030   */\n      add\n        /* \"#utility.yul\":2011:2036   */\n      gt\n        /* \"#utility.yul\":2008:2120   */\n      iszero\n      tag_103\n      jumpi\n        /* \"#utility.yul\":2039:2118   */\n      tag_104\n      tag_44\n      jump\t// in\n    tag_104:\n        /* \"#utility.yul\":2008:2120   */\n    tag_103:\n        /* \"#utility.yul\":2129:2183   */\n      tag_105\n        /* \"#utility.yul\":2176:2182   */\n      dup5\n        /* \"#utility.yul\":2171:2174   */\n      dup3\n        /* \"#utility.yul\":2166:2169   */\n      dup6\n        /* \"#utility.yul\":2129:2183   */\n      tag_50\n      jump\t// in\n    tag_105:\n        /* \"#utility.yul\":1848:2189   */\n      pop\n        /* \"#utility.yul\":1764:2189   */\n      swap4\n      swap3\n      pop\n      pop\n      pop\n      jump\t// out\n        /* \"#utility.yul\":2209:2549   */\n    tag_52:\n        /* \"#utility.yul\":2265:2270   */\n      0x00\n        /* \"#utility.yul\":2314:2317   */\n      dup3\n        /* \"#utility.yul\":2307:2311   */\n      0x1f\n        /* \"#utility.yul\":2299:2305   */\n      dup4\n        /* \"#utility.yul\":2295:2312   */\n      add\n        /* \"#utility.yul\":2291:2318   */\n      slt\n        /* \"#utility.yul\":2281:2403   */\n      tag_107\n      jumpi\n        /* \"#utility.yul\":2322:2401   */\n      tag_108\n      tag_43\n      jump\t// in\n    tag_108:\n        /* \"#utility.yul\":2281:2403   */\n    tag_107:\n        /* \"#utility.yul\":2439:2445   */\n      dup2\n        /* \"#utility.yul\":2426:2446   */\n      calldataload\n        /* \"#utility.yul\":2464:2543   */\n      tag_109\n        /* \"#utility.yul\":2539:2542   */\n      dup5\n        /* \"#utility.yul\":2531:2537   */\n      dup3\n        /* \"#utility.yul\":2524:2528   */\n      0x20\n        /* \"#utility.yul\":2516:2522   */\n      dup7\n        /* \"#utility.yul\":2512:2529   */\n      add\n        /* \"#utility.yul\":2464:2543   */\n      tag_51\n      jump\t// in\n    tag_109:\n        /* \"#utility.yul\":2455:2543   */\n      swap2\n      pop\n        /* \"#utility.yul\":2271:2549   */\n      pop\n        /* \"#utility.yul\":2209:2549   */\n      swap3\n      swap2\n      pop\n      pop\n      jump\t// out\n        /* \"#utility.yul\":2555:3389   */\n    tag_8:\n        /* \"#utility.yul\":2643:2649   */\n      0x00\n        /* \"#utility.yul\":2651:2657   */\n      dup1\n        /* \"#utility.yul\":2700:2702   */\n      0x40\n        /* \"#utility.yul\":2688:2697   */\n      dup4\n        /* \"#utility.yul\":2679:2686   */\n      dup6\n        /* \"#utility.yul\":2675:2698   */\n      sub\n        /* \"#utility.yul\":2671:2703   */\n      slt\n        /* \"#utility.yul\":2668:2787   */\n      iszero\n      tag_111\n      jumpi\n        /* \"#utility.yul\":2706:2785   */\n      tag_112\n      tag_41\n      jump\t// in\n    tag_112:\n        /* \"#utility.yul\":2668:2787   */\n    tag_111:\n        /* \"#utility.yul\":2854:2855   */\n      0x00\n        /* \"#utility.yul\":2843:2852   */\n      dup4\n        /* \"#utility.yul\":2839:2856   */\n      add\n        /* \"#utility.yul\":2826:2857   */\n      calldataload\n        /* \"#utility.yul\":2884:2902   */\n      0xffffffffffffffff\n        /* \"#utility.yul\":2876:2882   */\n      dup2\n        /* \"#utility.yul\":2873:2903   */\n      gt\n        /* \"#utility.yul\":2870:2987   */\n      iszero\n      tag_113\n      jumpi\n        /* \"#utility.yul\":2906:2985   */\n      tag_114\n      tag_42\n      jump\t// in\n    tag_114:\n        /* \"#utility.yul\":2870:2987   */\n    tag_113:\n        /* \"#utility.yul\":3011:3074   */\n      tag_115\n        /* \"#utility.yul\":3066:3073   */\n      dup6\n        /* \"#utility.yul\":3057:3063   */\n      dup3\n        /* \"#utility.yul\":3046:3055   */\n      dup7\n        /* \"#utility.yul\":3042:3064   */\n      add\n        /* \"#utility.yul\":3011:3074   */\n      tag_52\n      jump\t// in\n    tag_115:\n        /* \"#utility.yul\":3001:3074   */\n      swap3\n      pop\n        /* \"#utility.yul\":2797:3084   */\n      pop\n        /* \"#utility.yul\":3151:3153   */\n      0x20\n        /* \"#utility.yul\":3140:3149   */\n      dup4\n        /* \"#utility.yul\":3136:3154   */\n      add\n        /* \"#utility.yul\":3123:3155   */\n      calldataload\n        /* \"#utility.yul\":3182:3200   */\n      0xffffffffffffffff\n        /* \"#utility.yul\":3174:3180   */\n      dup2\n        /* \"#utility.yul\":3171:3201   */\n      gt\n        /* \"#utility.yul\":3168:3285   */\n      iszero\n      tag_116\n      jumpi\n        /* \"#utility.yul\":3204:3283   */\n      tag_117\n      tag_42\n      jump\t// in\n    tag_117:\n        /* \"#utility.yul\":3168:3285   */\n    tag_116:\n        /* \"#utility.yul\":3309:3372   */\n      tag_118\n        /* \"#utility.yul\":3364:3371   */\n      dup6\n        /* \"#utility.yul\":3355:3361   */\n      dup3\n        /* \"#utility.yul\":3344:3353   */\n      dup7\n        /* \"#utility.yul\":3340:3362   */\n      add\n        /* \"#utility.yul\":3309:3372   */\n      tag_52\n      jump\t// in\n    tag_118:\n        /* \"#utility.yul\":3299:3372   */\n      swap2\n      pop\n        /* \"#utility.yul\":3094:3382   */\n      pop\n        /* \"#utility.yul\":2555:3389   */\n      swap3\n      pop\n      swap3\n      swap1\n      pop\n      jump\t// out\n        /* \"#utility.yul\":3395:3472   */\n    tag_53:\n        /* \"#utility.yul\":3432:3439   */\n      0x00\n        /* \"#utility.yul\":3461:3466   */\n      dup2\n        /* \"#utility.yul\":3450:3466   */\n      swap1\n      pop\n        /* \"#utility.yul\":3395:3472   */\n      swap2\n      swap1\n      pop\n      jump\t// out\n        /* \"#utility.yul\":3478:3596   */\n    tag_54:\n        /* \"#utility.yul\":3565:3589   */\n      tag_121\n        /* \"#utility.yul\":3583:3588   */\n      dup2\n        /* \"#utility.yul\":3565:3589   */\n      tag_53\n      jump\t// in\n    tag_121:\n        /* \"#utility.yul\":3560:3563   */\n      dup3\n        /* \"#utility.yul\":3553:3590   */\n      mstore\n        /* \"#utility.yul\":3478:3596   */\n      pop\n      pop\n      jump\t// out\n        /* \"#utility.yul\":3602:3824   */\n    tag_13:\n        /* \"#utility.yul\":3695:3699   */\n      0x00\n        /* \"#utility.yul\":3733:3735   */\n      0x20\n        /* \"#utility.yul\":3722:3731   */\n      dup3\n        /* \"#utility.yul\":3718:3736   */\n      add\n        /* \"#utility.yul\":3710:3736   */\n      swap1\n      pop\n        /* \"#utility.yul\":3746:3817   */\n      tag_123\n        /* \"#utility.yul\":3814:3815   */\n      0x00\n        /* \"#utility.yul\":3803:3812   */\n      dup4\n        /* \"#utility.yul\":3799:3816   */\n      add\n        /* \"#utility.yul\":3790:3796   */\n      dup5\n        /* \"#utility.yul\":3746:3817   */\n      tag_54\n      jump\t// in\n    tag_123:\n        /* \"#utility.yul\":3602:3824   */\n      swap3\n      swap2\n      pop\n      pop\n      jump\t// out\n        /* \"#utility.yul\":3830:3952   */\n    tag_55:\n        /* \"#utility.yul\":3903:3927   */\n      tag_125\n        /* \"#utility.yul\":3921:3926   */\n      dup2\n        /* \"#utility.yul\":3903:3927   */\n      tag_53\n      jump\t// in\n    tag_125:\n        /* \"#utility.yul\":3896:3901   */\n      dup2\n        /* \"#utility.yul\":3893:3928   */\n      eq\n        /* \"#utility.yul\":3883:3946   */\n      tag_126\n      jumpi\n        /* \"#utility.yul\":3942:3943   */\n      0x00\n        /* \"#utility.yul\":3939:3940   */\n      dup1\n        /* \"#utility.yul\":3932:3944   */\n      revert\n        /* \"#utility.yul\":3883:3946   */\n    tag_126:\n        /* \"#utility.yul\":3830:3952   */\n      pop\n      jump\t// out\n        /* \"#utility.yul\":3958:4097   */\n    tag_56:\n        /* \"#utility.yul\":4004:4009   */\n      0x00\n        /* \"#utility.yul\":4042:4048   */\n      dup2\n        /* \"#utility.yul\":4029:4049   */\n      calldataload\n        /* \"#utility.yul\":4020:4049   */\n      swap1\n      pop\n        /* \"#utility.yul\":4058:4091   */\n      tag_128\n        /* \"#utility.yul\":4085:4090   */\n      dup2\n        /* \"#utility.yul\":4058:4091   */\n      tag_55\n      jump\t// in\n    tag_128:\n        /* \"#utility.yul\":3958:4097   */\n      swap3\n      swap2\n      pop\n      pop\n      jump\t// out\n        /* \"#utility.yul\":4103:4432   */\n    tag_16:\n        /* \"#utility.yul\":4162:4168   */\n      0x00\n        /* \"#utility.yul\":4211:4213   */\n      0x20\n        /* \"#utility.yul\":4199:4208   */\n      dup3\n        /* \"#utility.yul\":4190:4197   */\n      dup5\n        /* \"#utility.yul\":4186:4209   */\n      sub\n        /* \"#utility.yul\":4182:4214   */\n      slt\n        /* \"#utility.yul\":4179:4298   */\n      iszero\n      tag_130\n      jumpi\n        /* \"#utility.yul\":4217:4296   */\n      tag_131\n      tag_41\n      jump\t// in\n    tag_131:\n        /* \"#utility.yul\":4179:4298   */\n    tag_130:\n        /* \"#utility.yul\":4337:4338   */\n      0x00\n        /* \"#utility.yul\":4362:4415   */\n      tag_132\n        /* \"#utility.yul\":4407:4414   */\n      dup5\n        /* \"#utility.yul\":4398:4404   */\n      dup3\n        /* \"#utility.yul\":4387:4396   */\n      dup6\n        /* \"#utility.yul\":4383:4405   */\n      add\n        /* \"#utility.yul\":4362:4415   */\n      tag_56\n      jump\t// in\n    tag_132:\n        /* \"#utility.yul\":4352:4415   */\n      swap2\n      pop\n        /* \"#utility.yul\":4308:4425   */\n      pop\n        /* \"#utility.yul\":4103:4432   */\n      swap3\n      swap2\n      pop\n      pop\n      jump\t// out\n        /* \"#utility.yul\":4438:4537   */\n    tag_57:\n        /* \"#utility.yul\":4490:4496   */\n      0x00\n        /* \"#utility.yul\":4524:4529   */\n      dup2\n        /* \"#utility.yul\":4518:4530   */\n      mload\n        /* \"#utility.yul\":4508:4530   */\n      swap1\n      pop\n        /* \"#utility.yul\":4438:4537   */\n      swap2\n      swap1\n      pop\n      jump\t// out\n        /* \"#utility.yul\":4543:4712   */\n    tag_58:\n        /* \"#utility.yul\":4627:4638   */\n      0x00\n        /* \"#utility.yul\":4661:4667   */\n      dup3\n        /* \"#utility.yul\":4656:4659   */\n      dup3\n        /* \"#utility.yul\":4649:4668   */\n      mstore\n        /* \"#utility.yul\":4701:4705   */\n      0x20\n        /* \"#utility.yul\":4696:4699   */\n      dup3\n        /* \"#utility.yul\":4692:4706   */\n      add\n        /* \"#utility.yul\":4677:4706   */\n      swap1\n      pop\n        /* \"#utility.yul\":4543:4712   */\n      swap3\n      swap2\n      pop\n      pop\n      jump\t// out\n        /* \"#utility.yul\":4718:4857   */\n    tag_59:\n        /* \"#utility.yul\":4807:4813   */\n      dup3\n        /* \"#utility.yul\":4802:4805   */\n      dup2\n        /* \"#utility.yul\":4797:4800   */\n      dup4\n        /* \"#utility.yul\":4791:4814   */\n      mcopy\n        /* \"#utility.yul\":4848:4849   */\n      0x00\n        /* \"#utility.yul\":4839:4845   */\n      dup4\n        /* \"#utility.yul\":4834:4837   */\n      dup4\n        /* \"#utility.yul\":4830:4846   */\n      add\n        /* \"#utility.yul\":4823:4850   */\n      mstore\n        /* \"#utility.yul\":4718:4857   */\n      pop\n      pop\n      pop\n      jump\t// out\n        /* \"#utility.yul\":4863:5240   */\n    tag_60:\n        /* \"#utility.yul\":4951:4954   */\n      0x00\n        /* \"#utility.yul\":4979:5018   */\n      tag_137\n        /* \"#utility.yul\":5012:5017   */\n      dup3\n        /* \"#utility.yul\":4979:5018   */\n      tag_57\n      jump\t// in\n    tag_137:\n        /* \"#utility.yul\":5034:5105   */\n      tag_138\n        /* \"#utility.yul\":5098:5104   */\n      dup2\n        /* \"#utility.yul\":5093:5096   */\n      dup6\n        /* \"#utility.yul\":5034:5105   */\n      tag_58\n      jump\t// in\n    tag_138:\n        /* \"#utility.yul\":5027:5105   */\n      swap4\n      pop\n        /* \"#utility.yul\":5114:5179   */\n      tag_139\n        /* \"#utility.yul\":5172:5178   */\n      dup2\n        /* \"#utility.yul\":5167:5170   */\n      dup6\n        /* \"#utility.yul\":5160:5164   */\n      0x20\n        /* \"#utility.yul\":5153:5158   */\n      dup7\n        /* \"#utility.yul\":5149:5165   */\n      add\n        /* \"#utility.yul\":5114:5179   */\n      tag_59\n      jump\t// in\n    tag_139:\n        /* \"#utility.yul\":5204:5233   */\n      tag_140\n        /* \"#utility.yul\":5226:5232   */\n      dup2\n        /* \"#utility.yul\":5204:5233   */\n      tag_45\n      jump\t// in\n    tag_140:\n        /* \"#utility.yul\":5199:5202   */\n      dup5\n        /* \"#utility.yul\":5195:5234   */\n      add\n        /* \"#utility.yul\":5188:5234   */\n      swap2\n      pop\n        /* \"#utility.yul\":4955:5240   */\n      pop\n        /* \"#utility.yul\":4863:5240   */\n      swap3\n      swap2\n      pop\n      pop\n      jump\t// out\n        /* \"#utility.yul\":5246:5336   */\n    tag_61:\n        /* \"#utility.yul\":5280:5287   */\n      0x00\n        /* \"#utility.yul\":5323:5328   */\n      dup2\n        /* \"#utility.yul\":5316:5329   */\n      iszero\n        /* \"#utility.yul\":5309:5330   */\n      iszero\n        /* \"#utility.yul\":5298:5330   */\n      swap1\n      pop\n        /* \"#utility.yul\":5246:5336   */\n      swap2\n      swap1\n      pop\n      jump\t// out\n        /* \"#utility.yul\":5342:5451   */\n    tag_62:\n        /* \"#utility.yul\":5423:5444   */\n      tag_143\n        /* \"#utility.yul\":5438:5443   */\n      dup2\n        /* \"#utility.yul\":5423:5444   */\n      tag_61\n      jump\t// in\n    tag_143:\n        /* \"#utility.yul\":5418:5421   */\n      dup3\n        /* \"#utility.yul\":5411:5445   */\n      mstore\n        /* \"#utility.yul\":5342:5451   */\n      pop\n      pop\n      jump\t// out\n        /* \"#utility.yul\":5457:6180   */\n    tag_19:\n        /* \"#utility.yul\":5668:5672   */\n      0x00\n        /* \"#utility.yul\":5706:5709   */\n      0x80\n        /* \"#utility.yul\":5695:5704   */\n      dup3\n        /* \"#utility.yul\":5691:5710   */\n      add\n        /* \"#utility.yul\":5683:5710   */\n      swap1\n      pop\n        /* \"#utility.yul\":5756:5765   */\n      dup2\n        /* \"#utility.yul\":5750:5754   */\n      dup2\n        /* \"#utility.yul\":5746:5766   */\n      sub\n        /* \"#utility.yul\":5742:5743   */\n      0x00\n        /* \"#utility.yul\":5731:5740   */\n      dup4\n        /* \"#utility.yul\":5727:5744   */\n      add\n        /* \"#utility.yul\":5720:5767   */\n      mstore\n        /* \"#utility.yul\":5784:5862   */\n      tag_145\n        /* \"#utility.yul\":5857:5861   */\n      dup2\n        /* \"#utility.yul\":5848:5854   */\n      dup8\n        /* \"#utility.yul\":5784:5862   */\n      tag_60\n      jump\t// in\n    tag_145:\n        /* \"#utility.yul\":5776:5862   */\n      swap1\n      pop\n        /* \"#utility.yul\":5909:5918   */\n      dup2\n        /* \"#utility.yul\":5903:5907   */\n      dup2\n        /* \"#utility.yul\":5899:5919   */\n      sub\n        /* \"#utility.yul\":5894:5896   */\n      0x20\n        /* \"#utility.yul\":5883:5892   */\n      dup4\n        /* \"#utility.yul\":5879:5897   */\n      add\n        /* \"#utility.yul\":5872:5920   */\n      mstore\n        /* \"#utility.yul\":5937:6015   */\n      tag_146\n        /* \"#utility.yul\":6010:6014   */\n      dup2\n        /* \"#utility.yul\":6001:6007   */\n      dup7\n        /* \"#utility.yul\":5937:6015   */\n      tag_60\n      jump\t// in\n    tag_146:\n        /* \"#utility.yul\":5929:6015   */\n      swap1\n      pop\n        /* \"#utility.yul\":6025:6097   */\n      tag_147\n        /* \"#utility.yul\":6093:6095   */\n      0x40\n        /* \"#utility.yul\":6082:6091   */\n      dup4\n        /* \"#utility.yul\":6078:6096   */\n      add\n        /* \"#utility.yul\":6069:6075   */\n      dup6\n        /* \"#utility.yul\":6025:6097   */\n      tag_54\n      jump\t// in\n    tag_147:\n        /* \"#utility.yul\":6107:6173   */\n      tag_148\n        /* \"#utility.yul\":6169:6171   */\n      0x60\n        /* \"#utility.yul\":6158:6167   */\n      dup4\n        /* \"#utility.yul\":6154:6172   */\n      add\n        /* \"#utility.yul\":6145:6151   */\n      dup5\n        /* \"#utility.yul\":6107:6173   */\n      tag_62\n      jump\t// in\n    tag_148:\n        /* \"#utility.yul\":5457:6180   */\n      swap6\n      swap5\n      pop\n      pop\n      pop\n      pop\n      pop\n      jump\t// out\n        /* \"#utility.yul\":6186:6366   */\n    tag_63:\n        /* \"#utility.yul\":6234:6311   */\n      0x4e487b7100000000000000000000000000000000000000000000000000000000\n        /* \"#utility.yul\":6231:6232   */\n      0x00\n        /* \"#utility.yul\":6224:6312   */\n      mstore\n        /* \"#utility.yul\":6331:6335   */\n      0x22\n        /* \"#utility.yul\":6328:6329   */\n      0x04\n        /* \"#utility.yul\":6321:6336   */\n      mstore\n        /* \"#utility.yul\":6355:6359   */\n      0x24\n        /* \"#utility.yul\":6352:6353   */\n      0x00\n        /* \"#utility.yul\":6345:6360   */\n      revert\n        /* \"#utility.yul\":6372:6692   */\n    tag_30:\n        /* \"#utility.yul\":6416:6422   */\n      0x00\n        /* \"#utility.yul\":6453:6454   */\n      0x02\n        /* \"#utility.yul\":6447:6451   */\n      dup3\n        /* \"#utility.yul\":6443:6455   */\n      div\n        /* \"#utility.yul\":6433:6455   */\n      swap1\n      pop\n        /* \"#utility.yul\":6500:6501   */\n      0x01\n        /* \"#utility.yul\":6494:6498   */\n      dup3\n        /* \"#utility.yul\":6490:6502   */\n      and\n        /* \"#utility.yul\":6521:6539   */\n      dup1\n        /* \"#utility.yul\":6511:6592   */\n      tag_151\n      jumpi\n        /* \"#utility.yul\":6577:6581   */\n      0x7f\n        /* \"#utility.yul\":6569:6575   */\n      dup3\n        /* \"#utility.yul\":6565:6582   */\n      and\n        /* \"#utility.yul\":6555:6582   */\n      swap2\n      pop\n        /* \"#utility.yul\":6511:6592   */\n    tag_151:\n        /* \"#utility.yul\":6639:6641   */\n      0x20\n        /* \"#utility.yul\":6631:6637   */\n      dup3\n        /* \"#utility.yul\":6628:6642   */\n      lt\n        /* \"#utility.yul\":6608:6626   */\n      dup2\n        /* \"#utility.yul\":6605:6643   */\n      sub\n        /* \"#utility.yul\":6602:6686   */\n      tag_152\n      jumpi\n        /* \"#utility.yul\":6658:6676   */\n      tag_153\n      tag_63\n      jump\t// in\n    tag_153:\n        /* \"#utility.yul\":6602:6686   */\n    tag_152:\n        /* \"#utility.yul\":6423:6692   */\n      pop\n        /* \"#utility.yul\":6372:6692   */\n      swap2\n      swap1\n      pop\n      jump\t// out\n        /* \"#utility.yul\":6698:6839   */\n    tag_64:\n        /* \"#utility.yul\":6747:6751   */\n      0x00\n        /* \"#utility.yul\":6770:6773   */\n      dup2\n        /* \"#utility.yul\":6762:6773   */\n      swap1\n      pop\n        /* \"#utility.yul\":6793:6796   */\n      dup2\n        /* \"#utility.yul\":6790:6791   */\n      0x00\n        /* \"#utility.yul\":6783:6797   */\n      mstore\n        /* \"#utility.yul\":6827:6831   */\n      0x20\n        /* \"#utility.yul\":6824:6825   */\n      0x00\n        /* \"#utility.yul\":6814:6832   */\n      keccak256\n        /* \"#utility.yul\":6806:6832   */\n      swap1\n      pop\n        /* \"#utility.yul\":6698:6839   */\n      swap2\n      swap1\n      pop\n      jump\t// out\n        /* \"#utility.yul\":6845:6938   */\n    tag_65:\n        /* \"#utility.yul\":6882:6888   */\n      0x00\n        /* \"#utility.yul\":6929:6931   */\n      0x20\n        /* \"#utility.yul\":6924:6926   */\n      0x1f\n        /* \"#utility.yul\":6917:6922   */\n      dup4\n        /* \"#utility.yul\":6913:6927   */\n      add\n        /* \"#utility.yul\":6909:6932   */\n      div\n        /* \"#utility.yul\":6899:6932   */\n      swap1\n      pop\n        /* \"#utility.yul\":6845:6938   */\n      swap2\n      swap1\n      pop\n      jump\t// out\n        /* \"#utility.yul\":6944:7051   */\n    tag_66:\n        /* \"#utility.yul\":6988:6996   */\n      0x00\n        /* \"#utility.yul\":7038:7043   */\n      dup3\n        /* \"#utility.yul\":7032:7036   */\n      dup3\n        /* \"#utility.yul\":7028:7044   */\n      shl\n        /* \"#utility.yul\":7007:7044   */\n      swap1\n      pop\n        /* \"#utility.yul\":6944:7051   */\n      swap3\n      swap2\n      pop\n      pop\n      jump\t// out\n        /* \"#utility.yul\":7057:7450   */\n    tag_67:\n        /* \"#utility.yul\":7126:7132   */\n      0x00\n        /* \"#utility.yul\":7176:7177   */\n      0x08\n        /* \"#utility.yul\":7164:7174   */\n      dup4\n        /* \"#utility.yul\":7160:7178   */\n      mul\n        /* \"#utility.yul\":7199:7296   */\n      tag_158\n        /* \"#utility.yul\":7229:7295   */\n      0xffffffffffffffffffffffffffffffffffffffffffffffffffffffffffffffff\n        /* \"#utility.yul\":7218:7227   */\n      dup3\n        /* \"#utility.yul\":7199:7296   */\n      tag_66\n      jump\t// in\n    tag_158:\n        /* \"#utility.yul\":7317:7356   */\n      tag_159\n        /* \"#utility.yul\":7347:7355   */\n      dup7\n        /* \"#utility.yul\":7336:7345   */\n      dup4\n        /* \"#utility.yul\":7317:7356   */\n      tag_66\n      jump\t// in\n    tag_159:\n        /* \"#utility.yul\":7305:7356   */\n      swap6\n      pop\n        /* \"#utility.yul\":7389:7393   */\n      dup1\n        /* \"#utility.yul\":7385:7394   */\n      not\n        /* \"#utility.yul\":7378:7383   */\n      dup5\n        /* \"#utility.yul\":7374:7395   */\n      and\n        /* \"#utility.yul\":7365:7395   */\n      swap4\n      pop\n        /* \"#utility.yul\":7438:7442   */\n      dup1\n        /* \"#utility.yul\":7428:7436   */\n      dup7\n        /* \"#utility.yul\":7424:7443   */\n      and\n        /* \"#utility.yul\":7417:7422   */\n      dup5\n        /* \"#utility.yul\":7414:7444   */\n      or\n        /* \"#utility.yul\":7404:7444   */\n      swap3\n      pop\n        /* \"#utility.yul\":7133:7450   */\n      pop\n      pop\n        /* \"#utility.yul\":7057:7450   */\n      swap4\n      swap3\n      pop\n      pop\n      pop\n      jump\t// out\n        /* \"#utility.yul\":7456:7516   */\n    tag_68:\n        /* \"#utility.yul\":7484:7487   */\n      0x00\n        /* \"#utility.yul\":7505:7510   */\n      dup2\n        /* \"#utility.yul\":7498:7510   */\n      swap1\n      pop\n        /* \"#utility.yul\":7456:7516   */\n      swap2\n      swap1\n      pop\n      jump\t// out\n        /* \"#utility.yul\":7522:7664   */\n    tag_69:\n        /* \"#utility.yul\":7572:7581   */\n      0x00\n        /* \"#utility.yul\":7605:7658   */\n      tag_162\n        /* \"#utility.yul\":7623:7657   */\n      tag_163\n        /* \"#utility.yul\":7632:7656   */\n      tag_164\n        /* \"#utility.yul\":7650:7655   */\n      dup5\n        /* \"#utility.yul\":7632:7656   */\n      tag_53\n      jump\t// in\n    tag_164:\n        /* \"#utility.yul\":7623:7657   */\n      tag_68\n      jump\t// in\n    tag_163:\n        /* \"#utility.yul\":7605:7658   */\n      tag_53\n      jump\t// in\n    tag_162:\n        /* \"#utility.yul\":7592:7658   */\n      swap1\n      pop\n        /* \"#utility.yul\":7522:7664   */\n      swap2\n      swap1\n      pop\n      jump\t// out\n        /* \"#utility.yul\":7670:7745   */\n    tag_70:\n        /* \"#utility.yul\":7713:7716   */\n      0x00\n        /* \"#utility.yul\":7734:7739   */\n      dup2\n        /* \"#utility.yul\":7727:7739   */\n      swap1\n      pop\n        /* \"#utility.yul\":7670:7745   */\n      swap2\n      swap1\n      pop\n      jump\t// out\n        /* \"#utility.yul\":7751:8020   */\n    tag_71:\n        /* \"#utility.yul\":7861:7900   */\n      tag_167\n        /* \"#utility.yul\":7892:7899   */\n      dup4\n        /* \"#utility.yul\":7861:7900   */\n      tag_69\n      jump\t// in\n    tag_167:\n        /* \"#utility.yul\":7922:8013   */\n      tag_168\n        /* \"#utility.yul\":7971:8012   */\n      tag_169\n        /* \"#utility.yul\":7995:8011   */\n      dup3\n        /* \"#utility.yul\":7971:8012   */\n      tag_70\n      jump\t// in\n    tag_169:\n        /* \"#utility.yul\":7963:7969   */\n      dup5\n        /* \"#utility.yul\":7956:7960   */\n      dup5\n        /* \"#utility.yul\":7950:7961   */\n      sload\n        /* \"#utility.yul\":7922:8013   */\n      tag_67\n      jump\t// in\n    tag_168:\n        /* \"#utility.yul\":7916:7920   */\n      dup3\n        /* \"#utility.yul\":7909:8014   */\n      sstore\n        /* \"#utility.yul\":7827:8020   */\n      pop\n        /* \"#utility.yul\":7751:8020   */\n      pop\n      pop\n      pop\n      jump\t// out\n        /* \"#utility.yul\":8026:8099   */\n    tag_72:\n        /* \"#utility.yul\":8071:8074   */\n      0x00\n        /* \"#utility.yul\":8026:8099   */\n      swap1\n      jump\t// out\n        /* \"#utility.yul\":8105:8294   */\n    tag_73:\n        /* \"#utility.yul\":8182:8214   */\n      tag_172\n      tag_72\n      jump\t// in\n    tag_172:\n        /* \"#utility.yul\":8223:8288   */\n      tag_173\n        /* \"#utility.yul\":8281:8287   */\n      dup2\n        /* \"#utility.yul\":8273:8279   */\n      dup5\n        /* \"#utility.yul\":8267:8271   */\n      dup5\n        /* \"#utility.yul\":8223:8288   */\n      tag_71\n      jump\t// in\n    tag_173:\n        /* \"#utility.yul\":8158:8294   */\n      pop\n        /* \"#utility.yul\":8105:8294   */\n      pop\n      pop\n      jump\t// out\n        /* \"#utility.yul\":8300:8486   */\n    tag_74:\n        /* \"#utility.yul\":8360:8480   */\n    tag_175:\n        /* \"#utility.yul\":8377:8380   */\n      dup2\n        /* \"#utility.yul\":8370:8375   */\n      dup2\n        /* \"#utility.yul\":8367:8381   */\n      lt\n        /* \"#utility.yul\":8360:8480   */\n      iszero\n      tag_177\n      jumpi\n        /* \"#utility.yul\":8431:8470   */\n      tag_178\n        /* \"#utility.yul\":8468:8469   */\n      0x00\n        /* \"#utility.yul\":8461:8466   */\n      dup3\n        /* \"#utility.yul\":8431:8470   */\n      tag_73\n      jump\t// in\n    tag_178:\n        /* \"#utility.yul\":8404:8405   */\n      0x01\n        /* \"#utility.yul\":8397:8402   */\n      dup2\n        /* \"#utility.yul\":8393:8406   */\n      add\n        /* \"#utility.yul\":8384:8406   */\n      swap1\n      pop\n        /* \"#utility.yul\":8360:8480   */\n      jump(tag_175)\n    tag_177:\n        /* \"#utility.yul\":8300:8486   */\n      pop\n      pop\n      jump\t// out\n        /* \"#utility.yul\":8492:9035   */\n    tag_75:\n        /* \"#utility.yul\":8593:8595   */\n      0x1f\n        /* \"#utility.yul\":8588:8591   */\n      dup3\n        /* \"#utility.yul\":8585:8596   */\n      gt\n        /* \"#utility.yul\":8582:9028   */\n      iszero\n      tag_180\n      jumpi\n        /* \"#utility.yul\":8627:8665   */\n      tag_181\n        /* \"#utility.yul\":8659:8664   */\n      dup2\n        /* \"#utility.yul\":8627:8665   */\n      tag_64\n      jump\t// in\n    tag_181:\n        /* \"#utility.yul\":8711:8740   */\n      tag_182\n        /* \"#utility.yul\":8729:8739   */\n      dup5\n        /* \"#utility.yul\":8711:8740   */\n      tag_65\n      jump\t// in\n    tag_182:\n        /* \"#utility.yul\":8701:8709   */\n      dup2\n        /* \"#utility.yul\":8697:8741   */\n      add\n        /* \"#utility.yul\":8894:8896   */\n      0x20\n        /* \"#utility.yul\":8882:8892   */\n      dup6\n        /* \"#utility.yul\":8879:8897   */\n      lt\n        /* \"#utility.yul\":8876:8925   */\n      iszero\n      tag_183\n      jumpi\n        /* \"#utility.yul\":8915:8923   */\n      dup2\n        /* \"#utility.yul\":8900:8923   */\n      swap1\n      pop\n        /* \"#utility.yul\":8876:8925   */\n    tag_183:\n        /* \"#utility.yul\":8938:9018   */\n      tag_184\n        /* \"#utility.yul\":8994:9016   */\n      tag_185\n        /* \"#utility.yul\":9012:9015   */\n      dup6\n        /* \"#utility.yul\":8994:9016   */\n      tag_65\n      jump\t// in\n    tag_185:\n        /* \"#utility.yul\":8984:8992   */\n      dup4\n        /* \"#utility.yul\":8980:9017   */\n      add\n        /* \"#utility.yul\":8967:8978   */\n      dup3\n        /* \"#utility.yul\":8938:9018   */\n      tag_74\n      jump\t// in\n    tag_184:\n        /* \"#utility.yul\":8597:9028   */\n      pop\n      pop\n        /* \"#utility.yul\":8582:9028   */\n    tag_180:\n        /* \"#utility.yul\":8492:9035   */\n      pop\n      pop\n      pop\n      jump\t// out\n        /* \"#utility.yul\":9041:9158   */\n    tag_76:\n        /* \"#utility.yul\":9095:9103   */\n      0x00\n        /* \"#utility.yul\":9145:9150   */\n      dup3\n        /* \"#utility.yul\":9139:9143   */\n      dup3\n        /* \"#utility.yul\":9135:9151   */\n      shr\n        /* \"#utility.yul\":9114:9151   */\n      swap1\n      pop\n        /* \"#utility.yul\":9041:9158   */\n      swap3\n      swap2\n      pop\n      pop\n      jump\t// out\n        /* \"#utility.yul\":9164:9333   */\n    tag_77:\n        /* \"#utility.yul\":9208:9214   */\n      0x00\n        /* \"#utility.yul\":9241:9292   */\n      tag_188\n        /* \"#utility.yul\":9289:9290   */\n      0x00\n        /* \"#utility.yul\":9285:9291   */\n      not\n        /* \"#utility.yul\":9277:9282   */\n      dup5\n        /* \"#utility.yul\":9274:9275   */\n      0x08\n        /* \"#utility.yul\":9270:9283   */\n      mul\n        /* \"#utility.yul\":9241:9292   */\n      tag_76\n      jump\t// in\n    tag_188:\n        /* \"#utility.yul\":9237:9293   */\n      not\n        /* \"#utility.yul\":9322:9326   */\n      dup1\n        /* \"#utility.yul\":9316:9320   */\n      dup4\n        /* \"#utility.yul\":9312:9327   */\n      and\n        /* \"#utility.yul\":9302:9327   */\n      swap2\n      pop\n        /* \"#utility.yul\":9215:9333   */\n      pop\n        /* \"#utility.yul\":9164:9333   */\n      swap3\n      swap2\n      pop\n      pop\n      jump\t// out\n        /* \"#utility.yul\":9338:9633   */\n    tag_78:\n        /* \"#utility.yul\":9414:9418   */\n      0x00\n        /* \"#utility.yul\":9560:9589   */\n      tag_190\n        /* \"#utility.yul\":9585:9588   */\n      dup4\n        /* \"#utility.yul\":9579:9583   */\n      dup4\n        /* \"#utility.yul\":9560:9589   */\n      tag_77\n      jump\t// in\n    tag_190:\n        /* \"#utility.yul\":9552:9589   */\n      swap2\n      pop\n        /* \"#utility.yul\":9622:9625   */\n      dup3\n        /* \"#utility.yul\":9619:9620   */\n      0x02\n        /* \"#utility.yul\":9615:9626   */\n      mul\n        /* \"#utility.yul\":9609:9613   */\n      dup3\n        /* \"#utility.yul\":9606:9627   */\n      or\n        /* \"#utility.yul\":9598:9627   */\n      swap1\n      pop\n        /* \"#utility.yul\":9338:9633   */\n      swap3\n      swap2\n      pop\n      pop\n      jump\t// out\n        /* \"#utility.yul\":9638:11033   */\n    tag_23:\n        /* \"#utility.yul\":9755:9792   */\n      tag_192\n        /* \"#utility.yul\":9788:9791   */\n      dup3\n        /* \"#utility.yul\":9755:9792   */\n      tag_57\n      jump\t// in\n    tag_192:\n        /* \"#utility.yul\":9857:9875   */\n      0xffffffffffffffff\n        /* \"#utility.yul\":9849:9855   */\n      dup2\n        /* \"#utility.yul\":9846:9876   */\n      gt\n        /* \"#utility.yul\":9843:9899   */\n      iszero\n      tag_193\n      jumpi\n        /* \"#utility.yul\":9879:9897   */\n      tag_194\n      tag_46\n      jump\t// in\n    tag_194:\n        /* \"#utility.yul\":9843:9899   */\n    tag_193:\n        /* \"#utility.yul\":9923:9961   */\n      tag_195\n        /* \"#utility.yul\":9955:9959   */\n      dup3\n        /* \"#utility.yul\":9949:9960   */\n      sload\n        /* \"#utility.yul\":9923:9961   */\n      tag_30\n      jump\t// in\n    tag_195:\n        /* \"#utility.yul\":10008:10075   */\n      tag_196\n        /* \"#utility.yul\":10068:10074   */\n      dup3\n        /* \"#utility.yul\":10060:10066   */\n      dup3\n        /* \"#utility.yul\":10054:10058   */\n      dup6\n        /* \"#utility.yul\":10008:10075   */\n      tag_75\n      jump\t// in\n    tag_196:\n        /* \"#utility.yul\":10102:10103   */\n      0x00\n        /* \"#utility.yul\":10126:10130   */\n      0x20\n        /* \"#utility.yul\":10113:10130   */\n      swap1\n      pop\n        /* \"#utility.yul\":10158:10160   */\n      0x1f\n        /* \"#utility.yul\":10150:10156   */\n      dup4\n        /* \"#utility.yul\":10147:10161   */\n      gt\n        /* \"#utility.yul\":10175:10176   */\n      0x01\n        /* \"#utility.yul\":10170:10788   */\n      dup2\n      eq\n      tag_198\n      jumpi\n        /* \"#utility.yul\":10832:10833   */\n      0x00\n        /* \"#utility.yul\":10849:10855   */\n      dup5\n        /* \"#utility.yul\":10846:10923   */\n      iszero\n      tag_199\n      jumpi\n        /* \"#utility.yul\":10898:10907   */\n      dup3\n        /* \"#utility.yul\":10893:10896   */\n      dup8\n        /* \"#utility.yul\":10889:10908   */\n      add\n        /* \"#utility.yul\":10883:10909   */\n      mload\n        /* \"#utility.yul\":10874:10909   */\n      swap1\n      pop\n        /* \"#utility.yul\":10846:10923   */\n    tag_199:\n        /* \"#utility.yul\":10949:11016   */\n      tag_200\n        /* \"#utility.yul\":11009:11015   */\n      dup6\n        /* \"#utility.yul\":11002:11007   */\n      dup3\n        /* \"#utility.yul\":10949:11016   */\n      tag_78\n      jump\t// in\n    tag_200:\n        /* \"#utility.yul\":10943:10947   */\n      dup7\n        /* \"#utility.yul\":10936:11017   */\n      sstore\n        /* \"#utility.yul\":10805:11027   */\n      pop\n        /* \"#utility.yul\":10140:11027   */\n      jump(tag_197)\n        /* \"#utility.yul\":10170:10788   */\n    tag_198:\n        /* \"#utility.yul\":10222:10226   */\n      0x1f\n        /* \"#utility.yul\":10218:10227   */\n      not\n        /* \"#utility.yul\":10210:10216   */\n      dup5\n        /* \"#utility.yul\":10206:10228   */\n      and\n        /* \"#utility.yul\":10256:10293   */\n      tag_201\n        /* \"#utility.yul\":10288:10292   */\n      dup7\n        /* \"#utility.yul\":10256:10293   */\n      tag_64\n      jump\t// in\n    tag_201:\n        /* \"#utility.yul\":10315:10316   */\n      0x00\n        /* \"#utility.yul\":10329:10537   */\n    tag_202:\n        /* \"#utility.yul\":10343:10350   */\n      dup3\n        /* \"#utility.yul\":10340:10341   */\n      dup2\n        /* \"#utility.yul\":10337:10351   */\n      lt\n        /* \"#utility.yul\":10329:10537   */\n      iszero\n      tag_204\n      jumpi\n        /* \"#utility.yul\":10422:10431   */\n      dup5\n        /* \"#utility.yul\":10417:10420   */\n      dup10\n        /* \"#utility.yul\":10413:10432   */\n      add\n        /* \"#utility.yul\":10407:10433   */\n      mload\n        /* \"#utility.yul\":10399:10405   */\n      dup3\n        /* \"#utility.yul\":10392:10434   */\n      sstore\n        /* \"#utility.yul\":10473:10474   */\n      0x01\n        /* \"#utility.yul\":10465:10471   */\n      dup3\n        /* \"#utility.yul\":10461:10475   */\n      add\n        /* \"#utility.yul\":10451:10475   */\n      swap2\n      pop\n        /* \"#utility.yul\":10520:10522   */\n      0x20\n        /* \"#utility.yul\":10509:10518   */\n      dup6\n        /* \"#utility.yul\":10505:10523   */\n      add\n        /* \"#utility.yul\":10492:10523   */\n      swap5\n      pop\n        /* \"#utility.yul\":10366:10370   */\n      0x20\n        /* \"#utility.yul\":10363:10364   */\n      dup2\n        /* \"#utility.yul\":10359:10371   */\n      add\n        /* \"#utility.yul\":10354:10371   */\n      swap1\n      pop\n        /* \"#utility.yul\":10329:10537   */\n      jump(tag_202)\n    tag_204:\n        /* \"#utility.yul\":10565:10571   */\n      dup7\n        /* \"#utility.yul\":10556:10563   */\n      dup4\n        /* \"#utility.yul\":10553:10572   */\n      lt\n        /* \"#utility.yul\":10550:10729   */\n      iszero\n      tag_205\n      jumpi\n        /* \"#utility.yul\":10623:10632   */\n      dup5\n        /* \"#utility.yul\":10618:10621   */\n      dup10\n        /* \"#utility.yul\":10614:10633   */\n      add\n        /* \"#utility.yul\":10608:10634   */\n      mload\n        /* \"#utility.yul\":10666:10714   */\n      tag_206\n        /* \"#utility.yul\":10708:10712   */\n      0x1f\n        /* \"#utility.yul\":10700:10706   */\n      dup10\n        /* \"#utility.yul\":10696:10713   */\n      and\n        /* \"#utility.yul\":10685:10694   */\n      dup3\n        /* \"#utility.yul\":10666:10714   */\n      tag_77\n      jump\t// in\n    tag_206:\n        /* \"#utility.yul\":10658:10664   */\n      dup4\n        /* \"#utility.yul\":10651:10715   */\n      sstore\n        /* \"#utility.yul\":10573:10729   */\n      pop\n        /* \"#utility.yul\":10550:10729   */\n    tag_205:\n        /* \"#utility.yul\":10775:10776   */\n      0x01\n        /* \"#utility.yul\":10771:10772   */\n      0x02\n        /* \"#utility.yul\":10763:10769   */\n      dup9\n        /* \"#utility.yul\":10759:10773   */\n      mul\n        /* \"#utility.yul\":10755:10777   */\n      add\n        /* \"#utility.yul\":10749:10753   */\n      dup9\n        /* \"#utility.yul\":10742:10778   */\n      sstore\n        /* \"#utility.yul\":10177:10788   */\n      pop\n      pop\n      pop\n        /* \"#utility.yul\":10140:11027   */\n    tag_197:\n      pop\n        /* \"#utility.yul\":9730:11033   */\n      pop\n      pop\n      pop\n        /* \"#utility.yul\":9638:11033   */\n      pop\n      pop\n      jump\t// out\n        /* \"#utility.yul\":11039:11219   */\n    tag_79:\n        /* \"#utility.yul\":11087:11164   */\n      0x4e487b7100000000000000000000000000000000000000000000000000000000\n        /* \"#utility.yul\":11084:11085   */\n      0x00\n        /* \"#utility.yul\":11077:11165   */\n      mstore\n        /* \"#utility.yul\":11184:11188   */\n      0x11\n        /* \"#utility.yul\":11181:11182   */\n      0x04\n        /* \"#utility.yul\":11174:11189   */\n      mstore\n        /* \"#utility.yul\":11208:11212   */\n      0x24\n        /* \"#utility.yul\":11205:11206   */\n      0x00\n        /* \"#utility.yul\":11198:11213   */\n      revert\n        /* \"#utility.yul\":11225:11458   */\n    tag_26:\n        /* \"#utility.yul\":11264:11267   */\n      0x00\n        /* \"#utility.yul\":11287:11311   */\n      tag_209\n        /* \"#utility.yul\":11305:11310   */\n      dup3\n        /* \"#utility.yul\":11287:11311   */\n      tag_53\n      jump\t// in\n    tag_209:\n        /* \"#utility.yul\":11278:11311   */\n      swap2\n      pop\n        /* \"#utility.yul\":11333:11399   */\n      0xffffffffffffffffffffffffffffffffffffffffffffffffffffffffffffffff\n        /* \"#utility.yul\":11326:11331   */\n      dup3\n        /* \"#utility.yul\":11323:11400   */\n      sub\n        /* \"#utility.yul\":11320:11423   */\n      tag_210\n      jumpi\n        /* \"#utility.yul\":11403:11421   */\n      tag_211\n      tag_79\n      jump\t// in\n    tag_211:\n        /* \"#utility.yul\":11320:11423   */\n    tag_210:\n        /* \"#utility.yul\":11450:11451   */\n      0x01\n        /* \"#utility.yul\":11443:11448   */\n      dup3\n        /* \"#utility.yul\":11439:11452   */\n      add\n        /* \"#utility.yul\":11432:11452   */\n      swap1\n      pop\n        /* \"#utility.yul\":11225:11458   */\n      swap2\n      swap1\n      pop\n      jump\t// out\n\n    auxdata: 0xa264697066735822122007eb5edbf607123eaa4972e783714ec6720854e44287739f9a5d8cd18aa20ff464736f6c63430008190033\n}\n",
				"bytecode": {
					"linkReferences": {},
					"object": "60806040525f6001553480156012575f80fd5b5061094c806100205f395ff3fe608060405234801561000f575f80fd5b506004361061003f575f3560e01c8063198e2b8a146100435780631e96917d1461005f578063bfb231d21461007d575b5f80fd5b61005d60048036038101906100589190610412565b6100b0565b005b61006761016d565b60405161007491906104a0565b60405180910390f35b610097600480360381019061009291906104e3565b610173565b6040516100a79493929190610588565b60405180910390f35b5f6040518060800160405280848152602001838152602001600154815260200160011515815250908060018154018082558091505060019003905f5260205f2090600402015f909190919091505f820151815f01908161011091906107d3565b50602082015181600101908161012691906107d3565b50604082015181600201556060820151816003015f6101000a81548160ff021916908315150217905550505060015f815480929190610164906108cf565b91905055505050565b60015481565b5f8181548110610181575f80fd5b905f5260205f2090600402015f91509050805f0180546101a090610606565b80601f01602080910402602001604051908101604052809291908181526020018280546101cc90610606565b80156102175780601f106101ee57610100808354040283529160200191610217565b820191905f5260205f20905b8154815290600101906020018083116101fa57829003601f168201915b50505050509080600101805461022c90610606565b80601f016020809104026020016040519081016040528092919081815260200182805461025890610606565b80156102a35780601f1061027a576101008083540402835291602001916102a3565b820191905f5260205f20905b81548152906001019060200180831161028657829003601f168201915b505050505090806002015490806003015f9054906101000a900460ff16905084565b5f604051905090565b5f80fd5b5f80fd5b5f80fd5b5f80fd5b5f601f19601f8301169050919050565b7f4e487b71000000000000000000000000000000000000000000000000000000005f52604160045260245ffd5b610324826102de565b810181811067ffffffffffffffff82111715610343576103426102ee565b5b80604052505050565b5f6103556102c5565b9050610361828261031b565b919050565b5f67ffffffffffffffff8211156103805761037f6102ee565b5b610389826102de565b9050602081019050919050565b828183375f83830152505050565b5f6103b66103b184610366565b61034c565b9050828152602081018484840111156103d2576103d16102da565b5b6103dd848285610396565b509392505050565b5f82601f8301126103f9576103f86102d6565b5b81356104098482602086016103a4565b91505092915050565b5f8060408385031215610428576104276102ce565b5b5f83013567ffffffffffffffff811115610445576104446102d2565b5b610451858286016103e5565b925050602083013567ffffffffffffffff811115610472576104716102d2565b5b61047e858286016103e5565b9150509250929050565b5f819050919050565b61049a81610488565b82525050565b5f6020820190506104b35f830184610491565b92915050565b6104c281610488565b81146104cc575f80fd5b50565b5f813590506104dd816104b9565b92915050565b5f602082840312156104f8576104f76102ce565b5b5f610505848285016104cf565b91505092915050565b5f81519050919050565b5f82825260208201905092915050565b8281835e5f83830152505050565b5f6105408261050e565b61054a8185610518565b935061055a818560208601610528565b610563816102de565b840191505092915050565b5f8115159050919050565b6105828161056e565b82525050565b5f6080820190508181035f8301526105a08187610536565b905081810360208301526105b48186610536565b90506105c36040830185610491565b6105d06060830184610579565b95945050505050565b7f4e487b71000000000000000000000000000000000000000000000000000000005f52602260045260245ffd5b5f600282049050600182168061061d57607f821691505b6020821081036106305761062f6105d9565b5b50919050565b5f819050815f5260205f209050919050565b5f6020601f8301049050919050565b5f82821b905092915050565b5f600883026106927fffffffffffffffffffffffffffffffffffffffffffffffffffffffffffffffff82610657565b61069c8683610657565b95508019841693508086168417925050509392505050565b5f819050919050565b5f6106d76106d26106cd84610488565b6106b4565b610488565b9050919050565b5f819050919050565b6106f0836106bd565b6107046106fc826106de565b848454610663565b825550505050565b5f90565b61071861070c565b6107238184846106e7565b505050565b5b818110156107465761073b5f82610710565b600181019050610729565b5050565b601f82111561078b5761075c81610636565b61076584610648565b81016020851015610774578190505b61078861078085610648565b830182610728565b50505b505050565b5f82821c905092915050565b5f6107ab5f1984600802610790565b1980831691505092915050565b5f6107c3838361079c565b9150826002028217905092915050565b6107dc8261050e565b67ffffffffffffffff8111156107f5576107f46102ee565b5b6107ff8254610606565b61080a82828561074a565b5f60209050601f83116001811461083b575f8415610829578287015190505b61083385826107b8565b86555061089a565b601f19841661084986610636565b5f5b828110156108705784890151825560018201915060208501945060208101905061084b565b8683101561088d5784890151610889601f89168261079c565b8355505b6001600288020188555050505b505050505050565b7f4e487b71000000000000000000000000000000000000000000000000000000005f52601160045260245ffd5b5f6108d982610488565b91507fffffffffffffffffffffffffffffffffffffffffffffffffffffffffffffffff820361090b5761090a6108a2565b5b60018201905091905056fea264697066735822122007eb5edbf607123eaa4972e783714ec6720854e44287739f9a5d8cd18aa20ff464736f6c63430008190033",
					"opcodes": "PUSH1 0x80 PUSH1 0x40 MSTORE PUSH0 PUSH1 0x1 SSTORE CALLVALUE DUP1 ISZERO PUSH1 0x12 JUMPI PUSH0 DUP1 REVERT JUMPDEST POP PUSH2 0x94C DUP1 PUSH2 0x20 PUSH0 CODECOPY PUSH0 RETURN INVALID PUSH1 0x80 PUSH1 0x40 MSTORE CALLVALUE DUP1 ISZERO PUSH2 0xF JUMPI PUSH0 DUP1 REVERT JUMPDEST POP PUSH1 0x4 CALLDATASIZE LT PUSH2 0x3F JUMPI PUSH0 CALLDATALOAD PUSH1 0xE0 SHR DUP1 PUSH4 0x198E2B8A EQ PUSH2 0x43 JUMPI DUP1 PUSH4 0x1E96917D EQ PUSH2 0x5F JUMPI DUP1 PUSH4 0xBFB231D2 EQ PUSH2 0x7D JUMPI JUMPDEST PUSH0 DUP1 REVERT JUMPDEST PUSH2 0x5D PUSH1 0x4 DUP1 CALLDATASIZE SUB DUP2 ADD SWAP1 PUSH2 0x58 SWAP2 SWAP1 PUSH2 0x412 JUMP JUMPDEST PUSH2 0xB0 JUMP JUMPDEST STOP JUMPDEST PUSH2 0x67 PUSH2 0x16D JUMP JUMPDEST PUSH1 0x40 MLOAD PUSH2 0x74 SWAP2 SWAP1 PUSH2 0x4A0 JUMP JUMPDEST PUSH1 0x40 MLOAD DUP1 SWAP2 SUB SWAP1 RETURN JUMPDEST PUSH2 0x97 PUSH1 0x4 DUP1 CALLDATASIZE SUB DUP2 ADD SWAP1 PUSH2 0x92 SWAP2 SWAP1 PUSH2 0x4E3 JUMP JUMPDEST PUSH2 0x173 JUMP JUMPDEST PUSH1 0x40 MLOAD PUSH2 0xA7 SWAP5 SWAP4 SWAP3 SWAP2 SWAP1 PUSH2 0x588 JUMP JUMPDEST PUSH1 0x40 MLOAD DUP1 SWAP2 SUB SWAP1 RETURN JUMPDEST PUSH0 PUSH1 0x40 MLOAD DUP1 PUSH1 0x80 ADD PUSH1 0x40 MSTORE DUP1 DUP5 DUP2 MSTORE PUSH1 0x20 ADD DUP4 DUP2 MSTORE PUSH1 0x20 ADD PUSH1 0x1 SLOAD DUP2 MSTORE PUSH1 0x20 ADD PUSH1 0x1 ISZERO ISZERO DUP2 MSTORE POP SWAP1 DUP1 PUSH1 0x1 DUP2 SLOAD ADD DUP1 DUP3 SSTORE DUP1 SWAP2 POP POP PUSH1 0x1 SWAP1 SUB SWAP1 PUSH0 MSTORE PUSH1 0x20 PUSH0 KECCAK256 SWAP1 PUSH1 0x4 MUL ADD PUSH0 SWAP1 SWAP2 SWAP1 SWAP2 SWAP1 SWAP2 POP PUSH0 DUP3 ADD MLOAD DUP2 PUSH0 ADD SWAP1 DUP2 PUSH2 0x110 SWAP2 SWAP1 PUSH2 0x7D3 JUMP JUMPDEST POP PUSH1 0x20 DUP3 ADD MLOAD DUP2 PUSH1 0x1 ADD SWAP1 DUP2 PUSH2 0x126 SWAP2 SWAP1 PUSH2 0x7D3 JUMP JUMPDEST POP PUSH1 0x40 DUP3 ADD MLOAD DUP2 PUSH1 0x2 ADD SSTORE PUSH1 0x60 DUP3 ADD MLOAD DUP2 PUSH1 0x3 ADD PUSH0 PUSH2 0x100 EXP DUP2 SLOAD DUP2 PUSH1 0xFF MUL NOT AND SWAP1 DUP4 ISZERO ISZERO MUL OR SWAP1 SSTORE POP POP POP PUSH1 0x1 PUSH0 DUP2 SLOAD DUP1 SWAP3 SWAP2 SWAP1 PUSH2 0x164 SWAP1 PUSH2 0x8CF JUMP JUMPDEST SWAP2 SWAP1 POP SSTORE POP POP POP JUMP JUMPDEST PUSH1 0x1 SLOAD DUP2 JUMP JUMPDEST PUSH0 DUP2 DUP2 SLOAD DUP2 LT PUSH2 0x181 JUMPI PUSH0 DUP1 REVERT JUMPDEST SWAP1 PUSH0 MSTORE PUSH1 0x20 PUSH0 KECCAK256 SWAP1 PUSH1 0x4 MUL ADD PUSH0 SWAP2 POP SWAP1 POP DUP1 PUSH0 ADD DUP1 SLOAD PUSH2 0x1A0 SWAP1 PUSH2 0x606 JUMP JUMPDEST DUP1 PUSH1 0x1F ADD PUSH1 0x20 DUP1 SWAP2 DIV MUL PUSH1 0x20 ADD PUSH1 0x40 MLOAD SWAP1 DUP2 ADD PUSH1 0x40 MSTORE DUP1 SWAP3 SWAP2 SWAP1 DUP2 DUP2 MSTORE PUSH1 0x20 ADD DUP3 DUP1 SLOAD PUSH2 0x1CC SWAP1 PUSH2 0x606 JUMP JUMPDEST DUP1 ISZERO PUSH2 0x217 JUMPI DUP1 PUSH1 0x1F LT PUSH2 0x1EE JUMPI PUSH2 0x100 DUP1 DUP4 SLOAD DIV MUL DUP4 MSTORE SWAP2 PUSH1 0x20 ADD SWAP2 PUSH2 0x217 JUMP JUMPDEST DUP3 ADD SWAP2 SWAP1 PUSH0 MSTORE PUSH1 0x20 PUSH0 KECCAK256 SWAP1 JUMPDEST DUP2 SLOAD DUP2 MSTORE SWAP1 PUSH1 0x1 ADD SWAP1 PUSH1 0x20 ADD DUP1 DUP4 GT PUSH2 0x1FA JUMPI DUP3 SWAP1 SUB PUSH1 0x1F AND DUP3 ADD SWAP2 JUMPDEST POP POP POP POP POP SWAP1 DUP1 PUSH1 0x1 ADD DUP1 SLOAD PUSH2 0x22C SWAP1 PUSH2 0x606 JUMP JUMPDEST DUP1 PUSH1 0x1F ADD PUSH1 0x20 DUP1 SWAP2 DIV MUL PUSH1 0x20 ADD PUSH1 0x40 MLOAD SWAP1 DUP2 ADD PUSH1 0x40 MSTORE DUP1 SWAP3 SWAP2 SWAP1 DUP2 DUP2 MSTORE PUSH1 0x20 ADD DUP3 DUP1 SLOAD PUSH2 0x258 SWAP1 PUSH2 0x606 JUMP JUMPDEST DUP1 ISZERO PUSH2 0x2A3 JUMPI DUP1 PUSH1 0x1F LT PUSH2 0x27A JUMPI PUSH2 0x100 DUP1 DUP4 SLOAD DIV MUL DUP4 MSTORE SWAP2 PUSH1 0x20 ADD SWAP2 PUSH2 0x2A3 JUMP JUMPDEST DUP3 ADD SWAP2 SWAP1 PUSH0 MSTORE PUSH1 0x20 PUSH0 KECCAK256 SWAP1 JUMPDEST DUP2 SLOAD DUP2 MSTORE SWAP1 PUSH1 0x1 ADD SWAP1 PUSH1 0x20 ADD DUP1 DUP4 GT PUSH2 0x286 JUMPI DUP3 SWAP1 SUB PUSH1 0x1F AND DUP3 ADD SWAP2 JUMPDEST POP POP POP POP POP SWAP1 DUP1 PUSH1 0x2 ADD SLOAD SWAP1 DUP1 PUSH1 0x3 ADD PUSH0 SWAP1 SLOAD SWAP1 PUSH2 0x100 EXP SWAP1 DIV PUSH1 0xFF AND SWAP1 POP DUP5 JUMP JUMPDEST PUSH0 PUSH1 0x40 MLOAD SWAP1 POP SWAP1 JUMP JUMPDEST PUSH0 DUP1 REVERT JUMPDEST PUSH0 DUP1 REVERT JUMPDEST PUSH0 DUP1 REVERT JUMPDEST PUSH0 DUP1 REVERT JUMPDEST PUSH0 PUSH1 0x1F NOT PUSH1 0x1F DUP4 ADD AND SWAP1 POP SWAP2 SWAP1 POP JUMP JUMPDEST PUSH32 0x4E487B7100000000000000000000000000000000000000000000000000000000 PUSH0 MSTORE PUSH1 0x41 PUSH1 0x4 MSTORE PUSH1 0x24 PUSH0 REVERT JUMPDEST PUSH2 0x324 DUP3 PUSH2 0x2DE JUMP JUMPDEST DUP2 ADD DUP2 DUP2 LT PUSH8 0xFFFFFFFFFFFFFFFF DUP3 GT OR ISZERO PUSH2 0x343 JUMPI PUSH2 0x342 PUSH2 0x2EE JUMP JUMPDEST JUMPDEST DUP1 PUSH1 0x40 MSTORE POP POP POP JUMP JUMPDEST PUSH0 PUSH2 0x355 PUSH2 0x2C5 JUMP JUMPDEST SWAP1 POP PUSH2 0x361 DUP3 DUP3 PUSH2 0x31B JUMP JUMPDEST SWAP2 SWAP1 POP JUMP JUMPDEST PUSH0 PUSH8 0xFFFFFFFFFFFFFFFF DUP3 GT ISZERO PUSH2 0x380 JUMPI PUSH2 0x37F PUSH2 0x2EE JUMP JUMPDEST JUMPDEST PUSH2 0x389 DUP3 PUSH2 0x2DE JUMP JUMPDEST SWAP1 POP PUSH1 0x20 DUP2 ADD SWAP1 POP SWAP2 SWAP1 POP JUMP JUMPDEST DUP3 DUP2 DUP4 CALLDATACOPY PUSH0 DUP4 DUP4 ADD MSTORE POP POP POP JUMP JUMPDEST PUSH0 PUSH2 0x3B6 PUSH2 0x3B1 DUP5 PUSH2 0x366 JUMP JUMPDEST PUSH2 0x34C JUMP JUMPDEST SWAP1 POP DUP3 DUP2 MSTORE PUSH1 0x20 DUP2 ADD DUP5 DUP5 DUP5 ADD GT ISZERO PUSH2 0x3D2 JUMPI PUSH2 0x3D1 PUSH2 0x2DA JUMP JUMPDEST JUMPDEST PUSH2 0x3DD DUP5 DUP3 DUP6 PUSH2 0x396 JUMP JUMPDEST POP SWAP4 SWAP3 POP POP POP JUMP JUMPDEST PUSH0 DUP3 PUSH1 0x1F DUP4 ADD SLT PUSH2 0x3F9 JUMPI PUSH2 0x3F8 PUSH2 0x2D6 JUMP JUMPDEST JUMPDEST DUP2 CALLDATALOAD PUSH2 0x409 DUP5 DUP3 PUSH1 0x20 DUP7 ADD PUSH2 0x3A4 JUMP JUMPDEST SWAP2 POP POP SWAP3 SWAP2 POP POP JUMP JUMPDEST PUSH0 DUP1 PUSH1 0x40 DUP4 DUP6 SUB SLT ISZERO PUSH2 0x428 JUMPI PUSH2 0x427 PUSH2 0x2CE JUMP JUMPDEST JUMPDEST PUSH0 DUP4 ADD CALLDATALOAD PUSH8 0xFFFFFFFFFFFFFFFF DUP2 GT ISZERO PUSH2 0x445 JUMPI PUSH2 0x444 PUSH2 0x2D2 JUMP JUMPDEST JUMPDEST PUSH2 0x451 DUP6 DUP3 DUP7 ADD PUSH2 0x3E5 JUMP JUMPDEST SWAP3 POP POP PUSH1 0x20 DUP4 ADD CALLDATALOAD PUSH8 0xFFFFFFFFFFFFFFFF DUP2 GT ISZERO PUSH2 0x472 JUMPI PUSH2 0x471 PUSH2 0x2D2 JUMP JUMPDEST JUMPDEST PUSH2 0x47E DUP6 DUP3 DUP7 ADD PUSH2 0x3E5 JUMP JUMPDEST SWAP2 POP POP SWAP3 POP SWAP3 SWAP1 POP JUMP JUMPDEST PUSH0 DUP2 SWAP1 POP SWAP2 SWAP1 POP JUMP JUMPDEST PUSH2 0x49A DUP2 PUSH2 0x488 JUMP JUMPDEST DUP3 MSTORE POP POP JUMP JUMPDEST PUSH0 PUSH1 0x20 DUP3 ADD SWAP1 POP PUSH2 0x4B3 PUSH0 DUP4 ADD DUP5 PUSH2 0x491 JUMP JUMPDEST SWAP3 SWAP2 POP POP JUMP JUMPDEST PUSH2 0x4C2 DUP2 PUSH2 0x488 JUMP JUMPDEST DUP2 EQ PUSH2 0x4CC JUMPI PUSH0 DUP1 REVERT JUMPDEST POP JUMP JUMPDEST PUSH0 DUP2 CALLDATALOAD SWAP1 POP PUSH2 0x4DD DUP2 PUSH2 0x4B9 JUMP JUMPDEST SWAP3 SWAP2 POP POP JUMP JUMPDEST PUSH0 PUSH1 0x20 DUP3 DUP5 SUB SLT ISZERO PUSH2 0x4F8 JUMPI PUSH2 0x4F7 PUSH2 0x2CE JUMP JUMPDEST JUMPDEST PUSH0 PUSH2 0x505 DUP5 DUP3 DUP6 ADD PUSH2 0x4CF JUMP JUMPDEST SWAP2 POP POP SWAP3 SWAP2 POP POP JUMP JUMPDEST PUSH0 DUP2 MLOAD SWAP1 POP SWAP2 SWAP1 POP JUMP JUMPDEST PUSH0 DUP3 DUP3 MSTORE PUSH1 0x20 DUP3 ADD SWAP1 POP SWAP3 SWAP2 POP POP JUMP JUMPDEST DUP3 DUP2 DUP4 MCOPY PUSH0 DUP4 DUP4 ADD MSTORE POP POP POP JUMP JUMPDEST PUSH0 PUSH2 0x540 DUP3 PUSH2 0x50E JUMP JUMPDEST PUSH2 0x54A DUP2 DUP6 PUSH2 0x518 JUMP JUMPDEST SWAP4 POP PUSH2 0x55A DUP2 DUP6 PUSH1 0x20 DUP7 ADD PUSH2 0x528 JUMP JUMPDEST PUSH2 0x563 DUP2 PUSH2 0x2DE JUMP JUMPDEST DUP5 ADD SWAP2 POP POP SWAP3 SWAP2 POP POP JUMP JUMPDEST PUSH0 DUP2 ISZERO ISZERO SWAP1 POP SWAP2 SWAP1 POP JUMP JUMPDEST PUSH2 0x582 DUP2 PUSH2 0x56E JUMP JUMPDEST DUP3 MSTORE POP POP JUMP JUMPDEST PUSH0 PUSH1 0x80 DUP3 ADD SWAP1 POP DUP2 DUP2 SUB PUSH0 DUP4 ADD MSTORE PUSH2 0x5A0 DUP2 DUP8 PUSH2 0x536 JUMP JUMPDEST SWAP1 POP DUP2 DUP2 SUB PUSH1 0x20 DUP4 ADD MSTORE PUSH2 0x5B4 DUP2 DUP7 PUSH2 0x536 JUMP JUMPDEST SWAP1 POP PUSH2 0x5C3 PUSH1 0x40 DUP4 ADD DUP6 PUSH2 0x491 JUMP JUMPDEST PUSH2 0x5D0 PUSH1 0x60 DUP4 ADD DUP5 PUSH2 0x579 JUMP JUMPDEST SWAP6 SWAP5 POP POP POP POP POP JUMP JUMPDEST PUSH32 0x4E487B7100000000000000000000000000000000000000000000000000000000 PUSH0 MSTORE PUSH1 0x22 PUSH1 0x4 MSTORE PUSH1 0x24 PUSH0 REVERT JUMPDEST PUSH0 PUSH1 0x2 DUP3 DIV SWAP1 POP PUSH1 0x1 DUP3 AND DUP1 PUSH2 0x61D JUMPI PUSH1 0x7F DUP3 AND SWAP2 POP JUMPDEST PUSH1 0x20 DUP3 LT DUP2 SUB PUSH2 0x630 JUMPI PUSH2 0x62F PUSH2 0x5D9 JUMP JUMPDEST JUMPDEST POP SWAP2 SWAP1 POP JUMP JUMPDEST PUSH0 DUP2 SWAP1 POP DUP2 PUSH0 MSTORE PUSH1 0x20 PUSH0 KECCAK256 SWAP1 POP SWAP2 SWAP1 POP JUMP JUMPDEST PUSH0 PUSH1 0x20 PUSH1 0x1F DUP4 ADD DIV SWAP1 POP SWAP2 SWAP1 POP JUMP JUMPDEST PUSH0 DUP3 DUP3 SHL SWAP1 POP SWAP3 SWAP2 POP POP JUMP JUMPDEST PUSH0 PUSH1 0x8 DUP4 MUL PUSH2 0x692 PUSH32 0xFFFFFFFFFFFFFFFFFFFFFFFFFFFFFFFFFFFFFFFFFFFFFFFFFFFFFFFFFFFFFFFF DUP3 PUSH2 0x657 JUMP JUMPDEST PUSH2 0x69C DUP7 DUP4 PUSH2 0x657 JUMP JUMPDEST SWAP6 POP DUP1 NOT DUP5 AND SWAP4 POP DUP1 DUP7 AND DUP5 OR SWAP3 POP POP POP SWAP4 SWAP3 POP POP POP JUMP JUMPDEST PUSH0 DUP2 SWAP1 POP SWAP2 SWAP1 POP JUMP JUMPDEST PUSH0 PUSH2 0x6D7 PUSH2 0x6D2 PUSH2 0x6CD DUP5 PUSH2 0x488 JUMP JUMPDEST PUSH2 0x6B4 JUMP JUMPDEST PUSH2 0x488 JUMP JUMPDEST SWAP1 POP SWAP2 SWAP1 POP JUMP JUMPDEST PUSH0 DUP2 SWAP1 POP SWAP2 SWAP1 POP JUMP JUMPDEST PUSH2 0x6F0 DUP4 PUSH2 0x6BD JUMP JUMPDEST PUSH2 0x704 PUSH2 0x6FC DUP3 PUSH2 0x6DE JUMP JUMPDEST DUP5 DUP5 SLOAD PUSH2 0x663 JUMP JUMPDEST DUP3 SSTORE POP POP POP POP JUMP JUMPDEST PUSH0 SWAP1 JUMP JUMPDEST PUSH2 0x718 PUSH2 0x70C JUMP JUMPDEST PUSH2 0x723 DUP2 DUP5 DUP5 PUSH2 0x6E7 JUMP JUMPDEST POP POP POP JUMP JUMPDEST JUMPDEST DUP2 DUP2 LT ISZERO PUSH2 0x746 JUMPI PUSH2 0x73B PUSH0 DUP3 PUSH2 0x710 JUMP JUMPDEST PUSH1 0x1 DUP2 ADD SWAP1 POP PUSH2 0x729 JUMP JUMPDEST POP POP JUMP JUMPDEST PUSH1 0x1F DUP3 GT ISZERO PUSH2 0x78B JUMPI PUSH2 0x75C DUP2 PUSH2 0x636 JUMP JUMPDEST PUSH2 0x765 DUP5 PUSH2 0x648 JUMP JUMPDEST DUP2 ADD PUSH1 0x20 DUP6 LT ISZERO PUSH2 0x774 JUMPI DUP2 SWAP1 POP JUMPDEST PUSH2 0x788 PUSH2 0x780 DUP6 PUSH2 0x648 JUMP JUMPDEST DUP4 ADD DUP3 PUSH2 0x728 JUMP JUMPDEST POP POP JUMPDEST POP POP POP JUMP JUMPDEST PUSH0 DUP3 DUP3 SHR SWAP1 POP SWAP3 SWAP2 POP POP JUMP JUMPDEST PUSH0 PUSH2 0x7AB PUSH0 NOT DUP5 PUSH1 0x8 MUL PUSH2 0x790 JUMP JUMPDEST NOT DUP1 DUP4 AND SWAP2 POP POP SWAP3 SWAP2 POP POP JUMP JUMPDEST PUSH0 PUSH2 0x7C3 DUP4 DUP4 PUSH2 0x79C JUMP JUMPDEST SWAP2 POP DUP3 PUSH1 0x2 MUL DUP3 OR SWAP1 POP SWAP3 SWAP2 POP POP JUMP JUMPDEST PUSH2 0x7DC DUP3 PUSH2 0x50E JUMP JUMPDEST PUSH8 0xFFFFFFFFFFFFFFFF DUP2 GT ISZERO PUSH2 0x7F5 JUMPI PUSH2 0x7F4 PUSH2 0x2EE JUMP JUMPDEST JUMPDEST PUSH2 0x7FF DUP3 SLOAD PUSH2 0x606 JUMP JUMPDEST PUSH2 0x80A DUP3 DUP3 DUP6 PUSH2 0x74A JUMP JUMPDEST PUSH0 PUSH1 0x20 SWAP1 POP PUSH1 0x1F DUP4 GT PUSH1 0x1 DUP2 EQ PUSH2 0x83B JUMPI PUSH0 DUP5 ISZERO PUSH2 0x829 JUMPI DUP3 DUP8 ADD MLOAD SWAP1 POP JUMPDEST PUSH2 0x833 DUP6 DUP3 PUSH2 0x7B8 JUMP JUMPDEST DUP7 SSTORE POP PUSH2 0x89A JUMP JUMPDEST PUSH1 0x1F NOT DUP5 AND PUSH2 0x849 DUP7 PUSH2 0x636 JUMP JUMPDEST PUSH0 JUMPDEST DUP3 DUP2 LT ISZERO PUSH2 0x870 JUMPI DUP5 DUP10 ADD MLOAD DUP3 SSTORE PUSH1 0x1 DUP3 ADD SWAP2 POP PUSH1 0x20 DUP6 ADD SWAP5 POP PUSH1 0x20 DUP2 ADD SWAP1 POP PUSH2 0x84B JUMP JUMPDEST DUP7 DUP4 LT ISZERO PUSH2 0x88D JUMPI DUP5 DUP10 ADD MLOAD PUSH2 0x889 PUSH1 0x1F DUP10 AND DUP3 PUSH2 0x79C JUMP JUMPDEST DUP4 SSTORE POP JUMPDEST PUSH1 0x1 PUSH1 0x2 DUP9 MUL ADD DUP9 SSTORE POP POP POP JUMPDEST POP POP POP POP POP POP JUMP JUMPDEST PUSH32 0x4E487B7100000000000000000000000000000000000000000000000000000000 PUSH0 MSTORE PUSH1 0x11 PUSH1 0x4 MSTORE PUSH1 0x24 PUSH0 REVERT JUMPDEST PUSH0 PUSH2 0x8D9 DUP3 PUSH2 0x488 JUMP JUMPDEST SWAP2 POP PUSH32 0xFFFFFFFFFFFFFFFFFFFFFFFFFFFFFFFFFFFFFFFFFFFFFFFFFFFFFFFFFFFFFFFF DUP3 SUB PUSH2 0x90B JUMPI PUSH2 0x90A PUSH2 0x8A2 JUMP JUMPDEST JUMPDEST PUSH1 0x1 DUP3 ADD SWAP1 POP SWAP2 SWAP1 POP JUMP INVALID LOG2 PUSH5 0x6970667358 0x22 SLT KECCAK256 SMOD 0xEB MCOPY 0xDB 0xF6 SMOD SLT RETURNDATACOPY 0xAA BLOBHASH PUSH19 0xE783714EC6720854E44287739F9A5D8CD18AA2 0xF DELEGATECALL PUSH5 0x736F6C6343 STOP ADDMOD NOT STOP CALLER "
				},
				"gasEstimates": {
					"creation": {
						"codeDepositCost": "476000",
						"executionCost": "5514",
						"totalCost": "481514"
					},
					"external": {
						"create(string,string)": "infinite",
						"items(uint256)": "infinite",
						"nextID()": "2425"
					}
				},
				"methodIdentifiers": {
					"create(string,string)": "198e2b8a",
					"items(uint256)": "bfb231d2",
					"nextID()": "1e96917d"
				}
			},
			"storageLayout": {
				"storage": [
					{
						"astId": 14,
						"contract": "contracts/struct.sol:StructCRUD",
						"label": "items",
						"offset": 0,
						"slot": "0",
						"type": "t_array(t_struct(Item)10_storage)dyn_storage"
					},
					{
						"astId": 17,
						"contract": "contracts/struct.sol:StructCRUD",
						"label": "nextID",
						"offset": 0,
						"slot": "1",
						"type": "t_uint256"
					}
				],
				"types": {
					"t_array(t_struct(Item)10_storage)dyn_storage": {
						"base": "t_struct(Item)10_storage",
						"encoding": "dynamic_array",
						"label": "struct StructCRUD.Item[]",
						"numberOfBytes": "32"
					},
					"t_bool": {
						"encoding": "inplace",
						"label": "bool",
						"numberOfBytes": "1"
					},
					"t_string_storage": {
						"encoding": "bytes",
						"label": "string",
						"numberOfBytes": "32"
					},
					"t_struct(Item)10_storage": {
						"encoding": "inplace",
						"label": "struct StructCRUD.Item",
						"members": [
							{
								"astId": 3,
								"contract": "contracts/struct.sol:StructCRUD",
								"label": "name",
								"offset": 0,
								"slot": "0",
								"type": "t_string_storage"
							},
							{
								"astId": 5,
								"contract": "contracts/struct.sol:StructCRUD",
								"label": "age",
								"offset": 0,
								"slot": "1",
								"type": "t_string_storage"
							},
							{
								"astId": 7,
								"contract": "contracts/struct.sol:StructCRUD",
								"label": "id",
								"offset": 0,
								"slot": "2",
								"type": "t_uint256"
							},
							{
								"astId": 9,
								"contract": "contracts/struct.sol:StructCRUD",
								"label": "verrification",
								"offset": 0,
								"slot": "3",
								"type": "t_bool"
							}
						],
						"numberOfBytes": "128"
					},
					"t_uint256": {
						"encoding": "inplace",
						"label": "uint256",
						"numberOfBytes": "32"
					}
				}
			},
			"userdoc": {
				"kind": "user",
				"methods": {},
				"version": 1
			}
		}
	}
}